{
  "contractName": "LotteryFactory",
  "abi": [
    {
      "inputs": [
        {
          "internalType": "uint256",
          "name": "",
          "type": "uint256"
        }
      ],
      "name": "lotteries",
      "outputs": [
        {
          "internalType": "contract Lottery",
          "name": "",
          "type": "address"
        }
      ],
      "stateMutability": "view",
      "type": "function",
      "constant": true
    },
    {
      "inputs": [
        {
          "internalType": "string",
          "name": "_name",
          "type": "string"
        },
        {
          "internalType": "uint256",
          "name": "_expiration",
          "type": "uint256"
        },
        {
          "internalType": "uint256",
          "name": "_prize",
          "type": "uint256"
        }
      ],
      "name": "createLottery",
      "outputs": [
        {
          "internalType": "contract Lottery",
          "name": "",
          "type": "address"
        }
      ],
      "stateMutability": "payable",
      "type": "function",
      "payable": true
    },
    {
      "inputs": [],
      "name": "getLotteries",
      "outputs": [
        {
          "internalType": "contract Lottery[]",
          "name": "",
          "type": "address[]"
        }
      ],
      "stateMutability": "view",
      "type": "function",
      "constant": true
    }
  ],
  "bytecode": "0x608060405234801561001057600080fd5b506110a8806100206000396000f3fe6080604052600436106100345760003560e01c80631398e07614610039578063bcc82ec41461006f578063cac41f2514610091575b600080fd5b34801561004557600080fd5b506100596100543660046102b6565b6100a4565b604051610066919061038d565b60405180910390f35b34801561007b57600080fd5b506100846100ce565b6040516100669190610340565b61005961009f366004610206565b610130565b600081815481106100b457600080fd5b6000918252602090912001546001600160a01b0316905081565b6060600080548060200260200160405190810160405280929190818152602001828054801561012657602002820191906000526020600020905b81546001600160a01b03168152600190910190602001808311610108575b5050505050905090565b60008033858585604051610143906101f9565b61015094939291906102ce565b604051809103906000f08015801561016c573d6000803e3d6000fd5b5060405190915081906001600160a01b038216903480156108fc02916000818181858888f193505050501580156101a7573d6000803e3d6000fd5b5050600080546001810182559080527f290decd9548b62a8d60345a988386fc84ba6bc95484008f6362f93160ef3e5630180546001600160a01b0319166001600160a01b038316179055949350505050565b610cbb806103b883390190565b60008060006060848603121561021a578283fd5b833567ffffffffffffffff80821115610231578485fd5b818601915086601f830112610244578485fd5b8135602082821115610258576102586103a1565b604051601f8301601f191681018201848111828210171561027b5761027b6103a1565b60405282815284830182018a1015610291578788fd5b8282860183830137918201810196909652979486013596505050604090930135925050565b6000602082840312156102c7578081fd5b5035919050565b600060018060a01b038616825260206080818401528551806080850152825b818110156103095787810183015185820160a0015282016102ed565b8181111561031a578360a083870101525b5060408401959095525050606081019190915260a0601f909201601f1916010192915050565b6020808252825182820181905260009190848201906040850190845b818110156103815783516001600160a01b03168352928401929184019160010161035c565b50909695505050505050565b6001600160a01b0391909116815260200190565b634e487b7160e01b600052604160045260246000fdfe60806040523480156200001157600080fd5b5060405162000cbb38038062000cbb83398101604081905262000034916200011d565b600080546001600160a01b0319166001600160a01b03861617905582516200006490600190602086019062000077565b5060029190915560035550620002709050565b82805462000085906200021d565b90600052602060002090601f016020900481019282620000a95760008555620000f4565b82601f10620000c457805160ff1916838001178555620000f4565b82800160010185558215620000f4579182015b82811115620000f4578251825591602001919060010190620000d7565b506200010292915062000106565b5090565b5b8082111562000102576000815560010162000107565b6000806000806080858703121562000133578384fd5b84516001600160a01b03811681146200014a578485fd5b602086810151919550906001600160401b038082111562000169578586fd5b818801915088601f8301126200017d578586fd5b8151818111156200019257620001926200025a565b604051601f8201601f1916810185018381118282101715620001b857620001b86200025a565b60405281815283820185018b1015620001cf578788fd5b8792505b81831015620001f25783830185015181840186015291840191620001d3565b818311156200020357878583830101525b60408a01516060909a0151989b909a509650505050505050565b6002810460018216806200023257607f821691505b602082108114156200025457634e487b7160e01b600052602260045260246000fd5b50919050565b634e487b7160e01b600052604160045260246000fd5b610a3b80620002806000396000f3fe6080604052600436106101025760003560e01c8063893d20e811610095578063c34f6b0d11610064578063c34f6b0d1461025a578063dfbf53ae1461026f578063dfd50f5214610284578063e3ac5d26146102a4578063e8fcf723146102b957610109565b8063893d20e8146101f0578063a59f3e0c14610205578063c10196fa14610218578063c2ca0ac51461023a57610109565b8063481c6a75116100d1578063481c6a75146101825780635385bc44146101a4578063559e051c146101c65780637284e416146101db57610109565b806312065fe01461010b5780631a092541146101365780633a92c0ac146101585780634665096d1461016d57610109565b3661010957005b005b34801561011757600080fd5b506101206102d9565b60405161012d919061083b565b60405180910390f35b34801561014257600080fd5b5061014b6102dd565b60405161012d9190610844565b34801561016457600080fd5b5061012061036f565b34801561017957600080fd5b50610120610375565b34801561018e57600080fd5b5061019761037b565b60405161012d91906107b6565b3480156101b057600080fd5b506101b961038a565b60405161012d9190610830565b3480156101d257600080fd5b50610109610392565b3480156101e757600080fd5b5061014b6104a7565b3480156101fc57600080fd5b50610197610535565b61010961021336600461079e565b610544565b34801561022457600080fd5b5061022d6105d2565b60405161012d91906107e3565b34801561024657600080fd5b5061010961025536600461079e565b610633565b34801561026657600080fd5b50610120610719565b34801561027b57600080fd5b5061019761071f565b34801561029057600080fd5b5061019761029f36600461079e565b61072e565b3480156102b057600080fd5b50610120610758565b3480156102c557600080fd5b506101206102d4366004610770565b61075e565b4790565b6060600180546102ec906109aa565b80601f0160208091040260200160405190810160405280929190818152602001828054610318906109aa565b80156103655780601f1061033a57610100808354040283529160200191610365565b820191906000526020600020905b81548152906001019060200180831161034857829003601f168201915b5050505050905090565b60065481565b60025481565b6000546001600160a01b031681565b600254421090565b6002546103a29062015180610986565b4210156103ae57600080fd5b6007546001600160a01b0316156103c457600080fd5b6004546103ec5760405162461bcd60e51b81526004016103e39061090b565b60405180910390fd5b600480546006546103fd91906109e5565b8154811061041b57634e487b7160e01b600052603260045260246000fd5b600091825260209091200154600780546001600160a01b0319166001600160a01b039092169190911790556003544710156104685760405162461bcd60e51b81526004016103e3906108dd565b6007546003546040516001600160a01b039092169181156108fc0291906000818181858888f193505050501580156104a4573d6000803e3d6000fd5b50565b600180546104b4906109aa565b80601f01602080910402602001604051908101604052809291908181526020018280546104e0906109aa565b801561052d5780601f106105025761010080835404028352916020019161052d565b820191906000526020600020905b81548152906001019060200180831161051057829003601f168201915b505050505081565b6000546001600160a01b031690565b600254421061055257600080fd5b662386f26fc1000034101561056657600080fd5b33600090815260056020526040902054156105935760405162461bcd60e51b81526004016103e39061094f565b600033826040516020016105a89291906107ca565b60408051601f19818403018152918152815160209283012033600090815260059093529120555050565b6060600480548060200260200160405190810160405280929190818152602001828054801561036557602002820191906000526020600020905b81546001600160a01b0316815260019091019060200180831161060c575050505050905090565b60025442101561064257600080fd5b6007546001600160a01b03161561065857600080fd5b6000338260405160200161066d9291906107ca565b60408051601f198184030181529181528151602092830120336000908152600590935291205490915081146106b45760405162461bcd60e51b81526004016103e390610897565b600480546001810182556000919091527f8a35acfbc15ff81a39ae7d344fd709f28e8600b4aa8c65c6b64bfe7fe36bd19b0180546001600160a01b0319163317905560065460001990610708908490610986565b61071291906109e5565b6006555050565b60035490565b6007546001600160a01b031681565b6004818154811061073e57600080fd5b6000918252602090912001546001600160a01b0316905081565b60035481565b60056020526000908152604090205481565b600060208284031215610781578081fd5b81356001600160a01b0381168114610797578182fd5b9392505050565b6000602082840312156107af578081fd5b5035919050565b6001600160a01b0391909116815260200190565b6001600160a01b03929092168252602082015260400190565b6020808252825182820181905260009190848201906040850190845b818110156108245783516001600160a01b0316835292840192918401916001016107ff565b50909695505050505050565b901515815260200190565b90815260200190565b6000602080835283518082850152825b8181101561087057858101830151858201604001528201610854565b818111156108815783604083870101525b50601f01601f1916929092016040019392505050565b60208082526026908201527f496e636f7272656374206e756d62657220666f722072657665616c20636f6d6d6040820152651a5d1b595b9d60d21b606082015260800190565b602080825260149082015273496e73756666696369656e742062616c616e636560601b604082015260600190565b60208082526024908201527f4e6f207061727469636970616e742072657665616c6564207468656972206e7560408201526336b132b960e11b606082015260800190565b60208082526017908201527f4164647265737320616c726561647920656e7465726564000000000000000000604082015260600190565b600082198211156109a557634e487b7160e01b81526011600452602481fd5b500190565b6002810460018216806109be57607f821691505b602082108114156109df57634e487b7160e01b600052602260045260246000fd5b50919050565b600082610a0057634e487b7160e01b81526012600452602481fd5b50069056fea2646970667358221220316428ff3ab4bdc116129bb1a6420724e8eb18bd6b30454f032c3bef0d78ca0564736f6c63430008000033a26469706673582212208902a182a34e518e9450003f6b9d45c4fed916495ef97c182f9f8ccbec5c4f8564736f6c63430008000033",
  "immutableReferences": {},
  "source": "pragma solidity ^0.8.0;\n\nimport \"./Lottery.sol\";\n\ncontract LotteryFactory {\n\n    Lottery[] public lotteries;\n\n    function createLottery(string memory _name, uint256 _expiration, uint256 _prize) public payable returns (Lottery) {\n        Lottery lottery = new Lottery(msg.sender, _name, _expiration, _prize);\n        // Forward the received amount to the new lottery\n        address payable lotteryAddress = payable(address(lottery));\n        lotteryAddress.transfer(msg.value);\n        lotteries.push(lottery);\n        return lottery;\n    }\n\n    function getLotteries() public view returns (Lottery[] memory) {\n        return lotteries;\n    }\n\n}\n",
  "sourcePath": "/home/valerio/Documenti/petshop/contracts/LotteryFactory.sol",
  "compiler": {
    "name": "solc",
    "version": "0.8.0+commit.c7dfd78e.Emscripten.clang"
  },
  "schemaVersion": "3.4.16",
  "updatedAt": "2024-08-20T15:24:27.510Z",
  "networkType": "ethereum",
  "devdoc": {
    "kind": "dev",
    "methods": {},
    "version": 1
  },
  "userdoc": {
    "kind": "user",
    "methods": {},
    "version": 1
  }
}