{
  "contractName": "Lottery",
  "abi": [
    {
      "inputs": [
        {
          "internalType": "address",
          "name": "_manager",
          "type": "address"
        },
        {
          "internalType": "string",
          "name": "_name",
          "type": "string"
        },
        {
          "internalType": "uint256",
          "name": "_expiration",
          "type": "uint256"
        },
        {
          "internalType": "uint256",
          "name": "_prize",
          "type": "uint256"
        }
      ],
      "stateMutability": "nonpayable",
      "type": "constructor"
    },
    {
      "stateMutability": "payable",
      "type": "fallback"
    },
    {
      "inputs": [
        {
          "internalType": "uint256",
          "name": "",
          "type": "uint256"
        }
      ],
      "name": "contestants",
      "outputs": [
        {
          "internalType": "address",
          "name": "",
          "type": "address"
        }
      ],
      "stateMutability": "view",
      "type": "function"
    },
    {
      "inputs": [],
      "name": "manager",
      "outputs": [
        {
          "internalType": "address",
          "name": "",
          "type": "address"
        }
      ],
      "stateMutability": "view",
      "type": "function"
    },
    {
      "stateMutability": "payable",
      "type": "receive"
    },
    {
      "inputs": [],
      "name": "getContestants",
      "outputs": [
        {
          "internalType": "address[]",
          "name": "",
          "type": "address[]"
        }
      ],
      "stateMutability": "view",
      "type": "function"
    },
    {
      "inputs": [],
      "name": "getOwner",
      "outputs": [
        {
          "internalType": "address",
          "name": "",
          "type": "address"
        }
      ],
      "stateMutability": "view",
      "type": "function"
    },
    {
      "inputs": [],
      "name": "getBalance",
      "outputs": [
        {
          "internalType": "uint256",
          "name": "",
          "type": "uint256"
        }
      ],
      "stateMutability": "view",
      "type": "function"
    },
    {
      "inputs": [],
      "name": "getName",
      "outputs": [
        {
          "internalType": "string",
          "name": "",
          "type": "string"
        }
      ],
      "stateMutability": "view",
      "type": "function"
    },
    {
      "inputs": [],
      "name": "isLotteryOngoing",
      "outputs": [
        {
          "internalType": "bool",
          "name": "",
          "type": "bool"
        }
      ],
      "stateMutability": "view",
      "type": "function"
    },
    {
      "inputs": [],
      "name": "getPrize",
      "outputs": [
        {
          "internalType": "uint256",
          "name": "",
          "type": "uint256"
        }
      ],
      "stateMutability": "view",
      "type": "function"
    },
    {
      "inputs": [],
      "name": "enter",
      "outputs": [],
      "stateMutability": "payable",
      "type": "function"
    },
    {
      "inputs": [],
      "name": "extractWinner",
      "outputs": [],
      "stateMutability": "nonpayable",
      "type": "function"
    }
  ],
  "bytecode": "0x608060405234801561001057600080fd5b5060405161081938038061081983398101604081905261002f91610108565b600080546001600160a01b0319166001600160a01b038616179055825161005d90600290602086019061006f565b506003919091556004555061024b9050565b82805461007b906101fa565b90600052602060002090601f01602090048101928261009d57600085556100e3565b82601f106100b657805160ff19168380011785556100e3565b828001600101855582156100e3579182015b828111156100e35782518255916020019190600101906100c8565b506100ef9291506100f3565b5090565b5b808211156100ef57600081556001016100f4565b6000806000806080858703121561011d578384fd5b84516001600160a01b0381168114610133578485fd5b602086810151919550906001600160401b0380821115610151578586fd5b818801915088601f830112610164578586fd5b81518181111561017657610176610235565b604051601f8201601f191681018501838111828210171561019957610199610235565b60405281815283820185018b10156101af578788fd5b8792505b818310156101d057838301850151818401860152918401916101b3565b818311156101e057878583830101525b60408a01516060909a0151989b909a509650505050505050565b60028104600182168061020e57607f821691505b6020821081141561022f57634e487b7160e01b600052602260045260246000fd5b50919050565b634e487b7160e01b600052604160045260246000fd5b6105bf8061025a6000396000f3fe6080604052600436106100955760003560e01c8063893d20e811610059578063893d20e814610144578063c10196fa14610159578063c34f6b0d1461017b578063dfd50f5214610190578063e97dcb62146101b05761009c565b806312065fe01461009e57806317d7de7c146100c9578063481c6a75146100eb5780635385bc441461010d578063559e051c1461012f5761009c565b3661009c57005b005b3480156100aa57600080fd5b506100b36101b8565b6040516100c09190610545565b60405180910390f35b3480156100d557600080fd5b506100de6101bc565b6040516100c091906104c4565b3480156100f757600080fd5b5061010061024e565b6040516100c09190610458565b34801561011957600080fd5b5061012261025d565b6040516100c091906104b9565b34801561013b57600080fd5b5061009c610265565b34801561015057600080fd5b5061010061033b565b34801561016557600080fd5b5061016e61034a565b6040516100c0919061046c565b34801561018757600080fd5b506100b36103ab565b34801561019c57600080fd5b506101006101ab366004610440565b6103b1565b61009c6103db565b4790565b6060600280546101cb9061054e565b80601f01602080910402602001604051908101604052809291908181526020018280546101f79061054e565b80156102445780601f1061021957610100808354040283529160200191610244565b820191906000526020600020905b81548152906001019060200180831161022757829003601f168201915b5050505050905090565b6000546001600160a01b031681565b600354421090565b6000546001600160a01b0316331461027c57600080fd5b60035442101561028b57600080fd5b600060016000815481106102af57634e487b7160e01b600052603260045260246000fd5b6000918252602090912001546005805460ff191660011790556004546001600160a01b0390911691504710156103005760405162461bcd60e51b81526004016102f790610517565b60405180910390fd5b6004546040516001600160a01b0383169180156108fc02916000818181858888f19350505050158015610337573d6000803e3d6000fd5b5050565b6000546001600160a01b031690565b6060600180548060200260200160405190810160405280929190818152602001828054801561024457602002820191906000526020600020905b81546001600160a01b03168152600190910190602001808311610384575050505050905090565b60045490565b600181815481106103c157600080fd5b6000918252602090912001546001600160a01b0316905081565b60035442106103e957600080fd5b662386f26fc100003410156103fd57600080fd5b6001805480820182556000919091527fb10e2d527612073b26eecdfd717e6a320cf44b4afac2b0732d9fcbe2b7fa0cf60180546001600160a01b03191633179055565b600060208284031215610451578081fd5b5035919050565b6001600160a01b0391909116815260200190565b6020808252825182820181905260009190848201906040850190845b818110156104ad5783516001600160a01b031683529284019291840191600101610488565b50909695505050505050565b901515815260200190565b6000602080835283518082850152825b818110156104f0578581018301518582016040015282016104d4565b818111156105015783604083870101525b50601f01601f1916929092016040019392505050565b602080825260149082015273496e73756666696369656e742062616c616e636560601b604082015260600190565b90815260200190565b60028104600182168061056257607f821691505b6020821081141561058357634e487b7160e01b600052602260045260246000fd5b5091905056fea2646970667358221220f3e421d0837f0eda018ca9500c3dc2ae8fe3a8bd676a7da56d81bf5c4aa1830364736f6c63430008000033",
  "immutableReferences": {},
  "source": "// SPDX-License-Identifier: MIT\npragma solidity ^0.8.0;\n\ncontract Lottery {\n\n    address public manager;\n    address[] public contestants;\n    string name;\n    uint256 expiration;\n    uint256 prize;\n    bool ended;\n\n    constructor(address _manager, string memory _name, uint256 _expiration, uint256 _prize) {\n        manager = _manager;\n        name = _name;\n        expiration = _expiration;\n        prize = _prize;\n    }\n\n    receive() external payable {}\n\n    fallback() external payable {}\n\n    function getContestants() public view returns (address[] memory) {\n        return contestants;\n    }\n\n    function getOwner() public view returns (address) {\n        return manager;\n    }\n\n    function getBalance() public view returns (uint256) {\n        return address(this).balance;\n    }\n\n    function getName() public view returns (string memory) {\n        return name;\n    }\n\n    function isLotteryOngoing() public view returns (bool) {\n        return block.timestamp < expiration;\n    }\n\n    function getPrize() public view returns (uint256) {\n        return prize;\n    }\n\n    //Access Restriction pattern to owner and expiration time.\n    modifier onlyManager() {\n        require(msg.sender == manager);\n        _;\n    }\n\n    modifier onlyAfterExpiration() {\n        require(block.timestamp >= expiration);\n        _;\n    }\n\n    modifier onlyBeforeExpiration() {\n        require(block.timestamp < expiration);\n        _;\n    }\n\n    modifier onlyIfNotEnded() {\n        require(!ended);\n        _;\n    }\n\n    function enter() public payable onlyBeforeExpiration {\n        require(msg.value >= .01 ether);\n        contestants.push(msg.sender);\n    }\n\n\n    function extractWinner() public onlyManager onlyAfterExpiration {\n        //temporarily always extracts first partecipant\n        address winner = contestants[0];\n        ended = true;\n\n        //Verify balance\n        require(address(this).balance >= prize, \"Insufficient balance\");\n\n        payable(winner).transfer(prize);\n    }\n}\n",
  "sourcePath": "/home/valerio/Documenti/petshop/contracts/Lottery.sol",
  "compiler": {
    "name": "solc",
    "version": "0.8.0+commit.c7dfd78e.Emscripten.clang"
  },
  "schemaVersion": "3.4.16",
  "updatedAt": "2024-08-19T20:55:00.961Z",
  "devdoc": {
    "kind": "dev",
    "methods": {},
    "version": 1
  },
  "userdoc": {
    "kind": "user",
    "methods": {},
    "version": 1
  }
}