{
  "contractName": "Lottery",
  "abi": [
    {
      "inputs": [
        {
          "internalType": "address",
          "name": "_manager",
          "type": "address"
        }
      ],
      "payable": false,
      "stateMutability": "nonpayable",
      "type": "constructor"
    },
    {
      "constant": true,
      "inputs": [],
      "name": "manager",
      "outputs": [
        {
          "internalType": "address",
          "name": "",
          "type": "address"
        }
      ],
      "payable": false,
      "stateMutability": "view",
      "type": "function"
    },
    {
      "constant": true,
      "inputs": [
        {
          "internalType": "uint256",
          "name": "",
          "type": "uint256"
        }
      ],
      "name": "tickets",
      "outputs": [
        {
          "internalType": "contract Ticket",
          "name": "",
          "type": "address"
        }
      ],
      "payable": false,
      "stateMutability": "view",
      "type": "function"
    },
    {
      "constant": false,
      "inputs": [],
      "name": "enter",
      "outputs": [],
      "payable": true,
      "stateMutability": "payable",
      "type": "function"
    },
    {
      "constant": true,
      "inputs": [],
      "name": "getTickets",
      "outputs": [
        {
          "internalType": "contract Ticket[]",
          "name": "",
          "type": "address[]"
        }
      ],
      "payable": false,
      "stateMutability": "view",
      "type": "function"
    }
  ],
  "bytecode": "0x608060405234801561001057600080fd5b506040516106183803806106188339818101604052602081101561003357600080fd5b8101908080519060200190929190505050806000806101000a81548173ffffffffffffffffffffffffffffffffffffffff021916908373ffffffffffffffffffffffffffffffffffffffff16021790555050610584806100946000396000f3fe60806040526004361061003f5760003560e01c8063481c6a75146100445780634ed026221461009b57806350b4471214610107578063e97dcb6214610182575b600080fd5b34801561005057600080fd5b5061005961018c565b604051808273ffffffffffffffffffffffffffffffffffffffff1673ffffffffffffffffffffffffffffffffffffffff16815260200191505060405180910390f35b3480156100a757600080fd5b506100b06101b1565b6040518080602001828103825283818151815260200191508051906020019060200280838360005b838110156100f35780820151818401526020810190506100d8565b505050509050019250505060405180910390f35b34801561011357600080fd5b506101406004803603602081101561012a57600080fd5b810190808035906020019092919050505061023f565b604051808273ffffffffffffffffffffffffffffffffffffffff1673ffffffffffffffffffffffffffffffffffffffff16815260200191505060405180910390f35b61018a61027b565b005b6000809054906101000a900473ffffffffffffffffffffffffffffffffffffffff1681565b6060600180548060200260200160405190810160405280929190818152602001828054801561023557602002820191906000526020600020905b8160009054906101000a900473ffffffffffffffffffffffffffffffffffffffff1673ffffffffffffffffffffffffffffffffffffffff16815260200190600101908083116101eb575b5050505050905090565b6001818154811061024c57fe5b906000526020600020016000915054906101000a900473ffffffffffffffffffffffffffffffffffffffff1681565b662386f26fc1000034101561028f57600080fd5b60003360405161029e9061035c565b808273ffffffffffffffffffffffffffffffffffffffff1673ffffffffffffffffffffffffffffffffffffffff168152602001915050604051809103906000f0801580156102f0573d6000803e3d6000fd5b50905060018190806001815401808255809150509060018203906000526020600020016000909192909190916101000a81548173ffffffffffffffffffffffffffffffffffffffff021916908373ffffffffffffffffffffffffffffffffffffffff1602179055505050565b6101e68061036a8339019056fe608060405234801561001057600080fd5b506040516101e63803806101e68339818101604052602081101561003357600080fd5b8101908080519060200190929190505050806000806101000a81548173ffffffffffffffffffffffffffffffffffffffff021916908373ffffffffffffffffffffffffffffffffffffffff16021790555050610152806100946000396000f3fe608060405234801561001057600080fd5b50600436106100365760003560e01c8063893d20e81461003b5780638da5cb5b14610085575b600080fd5b6100436100cf565b604051808273ffffffffffffffffffffffffffffffffffffffff1673ffffffffffffffffffffffffffffffffffffffff16815260200191505060405180910390f35b61008d6100f8565b604051808273ffffffffffffffffffffffffffffffffffffffff1673ffffffffffffffffffffffffffffffffffffffff16815260200191505060405180910390f35b60008060009054906101000a900473ffffffffffffffffffffffffffffffffffffffff16905090565b6000809054906101000a900473ffffffffffffffffffffffffffffffffffffffff168156fea265627a7a72315820421fe563795d85f3724a62513d873b7c662ea293fb29d10a1d5af4d5809455c364736f6c63430005100032a265627a7a7231582044c92b8df52c094aef7722a4b4b8c4ba8dba17a3443ee27fef97f85cd527c7d364736f6c63430005100032",
  "source": "pragma solidity ^0.5.0;\n\nimport \"./Ticket.sol\";\n\ncontract Lottery {\n\n    address public manager;\n    Ticket[] public tickets;\n\n    constructor(address _manager) public {\n        manager = _manager;\n    }\n\n    function enter() public payable {\n        require(msg.value >= .01 ether);\n        Ticket ticket = new Ticket(msg.sender);\n        tickets.push(ticket);\n    }\n\n    function getTickets() public view returns (Ticket[] memory) {\n        return tickets;\n    }\n\n}\n",
  "sourcePath": "/home/valerio/Documenti/petshop/contracts/Lottery.sol",
  "compiler": {
    "name": "solc",
    "version": "0.5.16+commit.9c3226ce.Emscripten.clang"
  },
  "schemaVersion": "3.4.16",
  "updatedAt": "2024-08-18T09:56:43.009Z",
  "devdoc": {
    "methods": {}
  },
  "userdoc": {
    "methods": {}
  }
}