{
  "contractName": "Lottery",
  "abi": [
    {
      "inputs": [
        {
          "internalType": "address",
          "name": "_manager",
          "type": "address"
        }
      ],
      "stateMutability": "nonpayable",
      "type": "constructor"
    },
    {
      "stateMutability": "payable",
      "type": "fallback"
    },
    {
      "inputs": [],
      "name": "manager",
      "outputs": [
        {
          "internalType": "address",
          "name": "",
          "type": "address"
        }
      ],
      "stateMutability": "view",
      "type": "function"
    },
    {
      "inputs": [
        {
          "internalType": "uint256",
          "name": "",
          "type": "uint256"
        }
      ],
      "name": "tickets",
      "outputs": [
        {
          "internalType": "contract Ticket",
          "name": "",
          "type": "address"
        }
      ],
      "stateMutability": "view",
      "type": "function"
    },
    {
      "stateMutability": "payable",
      "type": "receive"
    },
    {
      "inputs": [],
      "name": "enter",
      "outputs": [],
      "stateMutability": "payable",
      "type": "function"
    },
    {
      "inputs": [],
      "name": "getTickets",
      "outputs": [
        {
          "internalType": "contract Ticket[]",
          "name": "",
          "type": "address[]"
        }
      ],
      "stateMutability": "view",
      "type": "function"
    },
    {
      "inputs": [],
      "name": "getOwner",
      "outputs": [
        {
          "internalType": "address",
          "name": "",
          "type": "address"
        }
      ],
      "stateMutability": "view",
      "type": "function"
    },
    {
      "inputs": [],
      "name": "getBalance",
      "outputs": [
        {
          "internalType": "uint256",
          "name": "",
          "type": "uint256"
        }
      ],
      "stateMutability": "view",
      "type": "function"
    }
  ],
  "bytecode": "0x608060405234801561001057600080fd5b506040516104fd3803806104fd83398101604081905261002f91610054565b600080546001600160a01b0319166001600160a01b0392909216919091179055610082565b600060208284031215610065578081fd5b81516001600160a01b038116811461007b578182fd5b9392505050565b61046c806100916000396000f3fe6080604052600436106100595760003560e01c806312065fe014610062578063481c6a751461008d5780634ed02622146100af57806350b44712146100d1578063893d20e8146100f1578063e97dcb621461010657610060565b3661006057005b005b34801561006e57600080fd5b5061007761010e565b60405161008491906102de565b60405180910390f35b34801561009957600080fd5b506100a2610112565b604051610084919061027d565b3480156100bb57600080fd5b506100c4610121565b6040516100849190610291565b3480156100dd57600080fd5b506100a26100ec366004610265565b610183565b3480156100fd57600080fd5b506100a26101ad565b6100606101bc565b4790565b6000546001600160a01b031681565b6060600180548060200260200160405190810160405280929190818152602001828054801561017957602002820191906000526020600020905b81546001600160a01b0316815260019091019060200180831161015b575b5050505050905090565b6001818154811061019357600080fd5b6000918252602090912001546001600160a01b0316905081565b6000546001600160a01b031690565b662386f26fc100003410156101d057600080fd5b6000336040516101df90610258565b6101e9919061027d565b604051809103906000f080158015610205573d6000803e3d6000fd5b506001805480820182556000919091527fb10e2d527612073b26eecdfd717e6a320cf44b4afac2b0732d9fcbe2b7fa0cf60180546001600160a01b0319166001600160a01b039290921691909117905550565b61014f806102e883390190565b600060208284031215610276578081fd5b5035919050565b6001600160a01b0391909116815260200190565b6020808252825182820181905260009190848201906040850190845b818110156102d25783516001600160a01b0316835292840192918401916001016102ad565b50909695505050505050565b9081526020019056fe608060405234801561001057600080fd5b5060405161014f38038061014f83398101604081905261002f91610054565b600080546001600160a01b0319166001600160a01b0392909216919091179055610082565b600060208284031215610065578081fd5b81516001600160a01b038116811461007b578182fd5b9392505050565b60bf806100906000396000f3fe6080604052348015600f57600080fd5b506004361060325760003560e01c8063893d20e81460375780638da5cb5b146051575b600080fd5b603d6057565b604051604891906075565b60405180910390f35b603d6066565b6000546001600160a01b031690565b6000546001600160a01b031681565b6001600160a01b039190911681526020019056fea26469706673582212206d70c295ac1d1626f9c918245630cb250a0ccb279e426d9d7590e7fede5dd3f764736f6c63430008000033a2646970667358221220c957944fd989a4f9ee9d47b5bba3cbb0a7fa914c2cd9498d7dfb7d00aca70c5464736f6c63430008000033",
  "immutableReferences": {},
  "source": "pragma solidity ^0.8.0;\n\nimport \"./Ticket.sol\";\n\ncontract Lottery {\n\n    address public manager;\n    Ticket[] public tickets;\n\n    constructor(address _manager) {\n        manager = _manager;\n    }\n\n    receive() external payable {}\n\n    fallback() external payable {}\n\n    function enter() public payable {\n        require(msg.value >= .01 ether);\n        Ticket ticket = new Ticket(msg.sender);\n        tickets.push(ticket);\n    }\n\n    function getTickets() public view returns (Ticket[] memory) {\n        return tickets;\n    }\n\n    function getOwner() public view returns (address) {\n        return manager;\n    }\n\n    function getBalance() public view returns (uint) {\n        return address(this).balance;\n    }\n\n}\n",
  "sourcePath": "/home/valerio/Documenti/petshop/contracts/Lottery.sol",
  "compiler": {
    "name": "solc",
    "version": "0.8.0+commit.c7dfd78e.Emscripten.clang"
  },
  "schemaVersion": "3.4.16",
  "updatedAt": "2024-08-18T15:00:02.706Z",
  "devdoc": {
    "kind": "dev",
    "methods": {},
    "version": 1
  },
  "userdoc": {
    "kind": "user",
    "methods": {},
    "version": 1
  }
}