{
  "contractName": "Lottery",
  "abi": [
    {
      "inputs": [],
      "payable": false,
      "stateMutability": "nonpayable",
      "type": "constructor"
    },
    {
      "constant": true,
      "inputs": [],
      "name": "manager",
      "outputs": [
        {
          "internalType": "address",
          "name": "",
          "type": "address"
        }
      ],
      "payable": false,
      "stateMutability": "view",
      "type": "function"
    },
    {
      "constant": true,
      "inputs": [
        {
          "internalType": "uint256",
          "name": "",
          "type": "uint256"
        }
      ],
      "name": "players",
      "outputs": [
        {
          "internalType": "address payable",
          "name": "",
          "type": "address"
        }
      ],
      "payable": false,
      "stateMutability": "view",
      "type": "function"
    },
    {
      "constant": true,
      "inputs": [
        {
          "internalType": "uint256",
          "name": "",
          "type": "uint256"
        }
      ],
      "name": "tickets",
      "outputs": [
        {
          "internalType": "contract Ticket",
          "name": "",
          "type": "address"
        }
      ],
      "payable": false,
      "stateMutability": "view",
      "type": "function"
    },
    {
      "constant": false,
      "inputs": [],
      "name": "enter",
      "outputs": [],
      "payable": true,
      "stateMutability": "payable",
      "type": "function"
    }
  ],
  "bytecode": "0x608060405234801561001057600080fd5b50336000806101000a81548173ffffffffffffffffffffffffffffffffffffffff021916908373ffffffffffffffffffffffffffffffffffffffff1602179055506105f2806100606000396000f3fe60806040526004361061003f5760003560e01c8063481c6a751461004457806350b447121461009b578063e97dcb6214610116578063f71d96cb14610120575b600080fd5b34801561005057600080fd5b5061005961019b565b604051808273ffffffffffffffffffffffffffffffffffffffff1673ffffffffffffffffffffffffffffffffffffffff16815260200191505060405180910390f35b3480156100a757600080fd5b506100d4600480360360208110156100be57600080fd5b81019080803590602001909291905050506101c0565b604051808273ffffffffffffffffffffffffffffffffffffffff1673ffffffffffffffffffffffffffffffffffffffff16815260200191505060405180910390f35b61011e6101fc565b005b34801561012c57600080fd5b506101596004803603602081101561014357600080fd5b8101908080359060200190929190505050610304565b604051808273ffffffffffffffffffffffffffffffffffffffff1673ffffffffffffffffffffffffffffffffffffffff16815260200191505060405180910390f35b6000809054906101000a900473ffffffffffffffffffffffffffffffffffffffff1681565b600281815481106101cd57fe5b906000526020600020016000915054906101000a900473ffffffffffffffffffffffffffffffffffffffff1681565b6002303360028054905060405161021290610340565b808473ffffffffffffffffffffffffffffffffffffffff1673ffffffffffffffffffffffffffffffffffffffff1681526020018373ffffffffffffffffffffffffffffffffffffffff1673ffffffffffffffffffffffffffffffffffffffff1681526020018281526020019350505050604051809103906000f08015801561029e573d6000803e3d6000fd5b5090806001815401808255809150509060018203906000526020600020016000909192909190916101000a81548173ffffffffffffffffffffffffffffffffffffffff021916908373ffffffffffffffffffffffffffffffffffffffff16021790555050565b6001818154811061031157fe5b906000526020600020016000915054906101000a900473ffffffffffffffffffffffffffffffffffffffff1681565b6102708061034e8339019056fe608060405234801561001057600080fd5b506040516102703803806102708339818101604052606081101561003357600080fd5b81019080805190602001909291908051906020019092919080519060200190929190505050826000806101000a81548173ffffffffffffffffffffffffffffffffffffffff021916908373ffffffffffffffffffffffffffffffffffffffff16021790555081600160006101000a81548173ffffffffffffffffffffffffffffffffffffffff021916908373ffffffffffffffffffffffffffffffffffffffff1602179055508060028190555050505061017e806100f26000396000f3fe608060405234801561001057600080fd5b50600436106100415760003560e01c806348db5f8914610046578063ba13a57214610090578063c54c7da6146100da575b600080fd5b61004e6100f8565b604051808273ffffffffffffffffffffffffffffffffffffffff1673ffffffffffffffffffffffffffffffffffffffff16815260200191505060405180910390f35b61009861011e565b604051808273ffffffffffffffffffffffffffffffffffffffff1673ffffffffffffffffffffffffffffffffffffffff16815260200191505060405180910390f35b6100e2610143565b6040518082815260200191505060405180910390f35b600160009054906101000a900473ffffffffffffffffffffffffffffffffffffffff1681565b6000809054906101000a900473ffffffffffffffffffffffffffffffffffffffff1681565b6002548156fea265627a7a72315820d9b3e5c62acc1501ccceb1412bc8dea8c8116d477a283c0fd76bcd20d87f250864736f6c63430005100032a265627a7a723158201f71fa963d42fd2c28a213955c4d7813750d3fb59f38fe0d22184868ee3ebc1564736f6c63430005100032",
  "source": "pragma solidity ^0.5.0;\n\nimport \"./Ticket.sol\";\n\ncontract Lottery {\n    // As of Solidity 0.5.0 the `address` type was split into `address` and\n    // `address payable`, where only `address payable` provides the transfer\n    // function. We therefore need to explicity use the `address payable[]`\n    // array type for the players array.\n    address public manager;\n    address payable[] public players;\n    Ticket[] public tickets;\n\n    // As of Solidity 0.5.0 constructors must be defined using the `constructor`\n    // keyword. See https://docs.soliditylang.org/en/latest/050-breaking-changes.html#constructors\n    //\n    // As of Solidity 0.7.0 visibility (public / internal) is not needed for\n    // constructors anymore. To prevent a contract from being created,\n    // it can be marked abstract.\n    constructor() public {\n        manager = msg.sender;\n    }\n\n    // As of Solidity 0.5.0 the `payable` modifier is required for functions\n    // that receive Ether. This is to prevent accidental calls to functions\n    // that were not meant to receive Ether.\n    function enter() public payable {\n        // require(msg.value > .01 ether);\n        // players.push(msg.sender);\n        tickets.push(new Ticket(address(this), msg.sender, tickets.length));\n    }\n\n}\n",
  "sourcePath": "/home/valerio/Documenti/petshop/contracts/Lottery.sol",
  "compiler": {
    "name": "solc",
    "version": "0.5.16+commit.9c3226ce.Emscripten.clang"
  },
  "schemaVersion": "3.4.16",
  "updatedAt": "2024-08-17T11:13:36.625Z",
  "networkType": "ethereum",
  "devdoc": {
    "methods": {}
  },
  "userdoc": {
    "methods": {}
  }
}